0208010450999992003021718004+99999+999999FM-12+999999999V0202901N002010120019N0400001N1+00541+00171102051ADDAA106000091AY121061AY221061GF107991051061012501071999MA1999999102021MD1710091+9999MW1021REMSYN089AAXX  17181 01045 31682 72902 10054 20017 30202 40205 57009 70222 8567/ 333 9+1 .77/1110;EQDQ01  00002PRCP06
0190010450999992003030518004+99999+999999FM-12+999999999V0201501N006012200019N0750001N1-00611-01141101511ADDAY101061AY201061GF102991001001999999001081KA1120M-00101MA1999999101481MD1710081+9999MW1021REMSYN088AAXX  05181 01045 41989 21506 11061 21114 30148 40151 57008 70200 80008 333 11010 91110;
0090010450999992003041018004+99999+999999FM-12+999999999V02099999999999999999N9999999N1+99999+99999999999REMSYN081AAXX  10181 01045 31.89 01602 10054 2102 30296 40299 54000 70200 333 10071 91105;
0259010450999992003041218004+99999+999999FM-12+999999999V0201801N00701045001CN0600001N1+00401-00131102721ADDAA106000091AY121061AY221061GF106991021051008001071081KA1120M+00481MA1999999102691MD1710841+9999MW1011OA149999999REMSYN100AAXX  12181 01045 31586 61807 10040 21013 30269 40272 57084 70122 82578 333 10048 91110 0/114 20002;EQDQ01  00002PRCP06Q02  00512WGOSPD
0236010450999992003042718004+99999+999999FM-12+999999999V0201601N006012200019N0600001N1+00161-00461100941ADDAA106000091AY121061AY211061GF104991041081012501071081KA1120M+99999MA1999999100911MD1710101+9999MW1011REMSYN088AAXX  27181 01045 31686 41606 10016 21046 30091 40094 57010 70121 84878 333 11005 91110;EQDQ01  00002PRCP06Q02 -00052ATMX  
0207010450999992003052818004+99999+999999FM-12+999999999V0203601N006010075019N0400001N1+00541+00261101911ADDAA112000591AY161061AY221061GF107991071061008001999999KA1120M+00721MA1999999101881MD1210111+9999MW1021REMSYN094AAXX  28181 01045 11582 73606 10054 20026 30188 40191 52011 69952 70262 876// 333 10072 91109;
0151010450999992003060506004+99999+999999FM-12+999999999V0201301N006012200019N0750001N1+00681-00151999999ADDAA106000091GF101991999999008001999999REMSYN083AAXX  05061 01045 31589 11306 10068 21015 20026 30181 401 57017 70200 815003 91108;EQDQ01  00002PRCP06
0170010450999992003071312004+69833+021883FM-12+000699999V0203601N00151045001CN0400001N1+01541+01061101801ADDAY181061AY221061GF107991041061004501071999MA1999999101771MD1210221+9999MW1021REMSYN081AAXX  13124 01045 41482 73603 10154 20106 30177 40180 52022 70282 8467/ 333 1103;
0220010450999992003090718004+69833+021883FM-12+000699999V0201501N002010300019N0600001N1+01781+00891101371ADDAA106000091AY121061AY221061GF106991041021012501041011KA1120M+01931MA1999999101341MD1410001+9999MW1021REMSYN088AAXX  07181 01045 31686 61502 10178 20089 30134 40137 54000 70222 84241 333 10193 91105;EQDQ01  00002PRCP06
0096010450999992003100105004+69833+021883FM-15+000699999V02099999999992200019N0012001N1+99999+99999999999ADDMW1001REMMET059010450Z 12005KT 7000 HZ SKC 28/19 Q1007 WHT BECMG 8000 BLU;EQDQ01+000000PRSWM2
0168010450999992003111518004+69833+021883FM-12+000699999V0200801N001012200019N0500001N1-00061+99999999999ADDAA106000091GF102991999999004501999999KA1120M+00071REMSYN087AAXX  15181 01045 31484 20801 11006 2121 30078 40081 52002 70200 81028 333 10007 91103;EQDQ01  00002PRCP06
